:100000000C9462000C948A000C948A000C948A0070
:100010000C948A000C948A000C948A000C948A0038
:100020000C948A000C948A000C948A000C948A0028
:100030000C948A000C948A000C948A000C948A0018
:100040000C94DD020C948A000C948A000C948A00B3
:100050000C948A000C948A000C948A000C948A00F8
:100060000C948A000C948A000000000024002700F1
:100070002A0000000000250028002B0000000008D6
:10008000000201000003040700000000000000005F
:1000900000000000230026002900040404040404D6
:1000A0000404020202020202030303030303010227
:1000B00004081020408001020408102001020408F6
:1000C0001020870411241FBECFEFD8E0DEBFCDBFC4
:1000D00011E0A0E0B1E0EAE6FCE002C005900D927C
:1000E000AC33B107D9F721E0ACE3B1E001C01D9218
:1000F000AE35B207E1F710E0C2E6D0E004C02197C8
:10010000FE010E942D06C136D107C9F70E946C037B
:100110000C9433060C940000AF92BF92CF92DF9202
:10012000EF92FF920F931F93CF93DF936C017B01AC
:100130008B01040F151FEB015E01AE18BF08C0173D
:10014000D10759F06991D601ED91FC910190F081B0
:10015000E02DC6010995892B79F7C501DF91CF9173
:100160001F910F91FF90EF90DF90CF90BF90AF90D5
:10017000089590E0FC01E458FF4F2491FC01E25502
:10018000FF4F3491FC01E656FF4FE491EE23C9F096
:10019000222339F0233001F1A8F4213019F1223063
:1001A00029F1F0E0EE0FFF1FEE58FF4FA591B4913B
:1001B0008FB7F894EC91611126C030953E233C93A3
:1001C0008FBF08952730A9F02830C9F0243049F7AF
:1001D000809180008F7D03C0809180008F77809315
:1001E0008000DFCF84B58F7784BDDBCF84B58F7D72
:1001F000FBCF8091B0008F778093B000D2CF8091F9
:10020000B0008F7DF9CF3E2BDACFCF93DF9390E014
:10021000FC01E255FF4F249186569F4FFC018491CB
:100220008823D1F090E0880F991FFC01E859FF4F17
:10023000A591B491FC01EE58FF4FC591D491611185
:100240000EC09FB7F8948C91E22FE0958E238C938B
:100250002881E223E8839FBFDF91CF9108958FB774
:10026000F894EC91E22BEC938FBFF6CF089590E0D9
:1002700080E008958F929F92AF92BF920F931F9349
:10028000CF93DF93CDB7DEB7A1970FB6F894DEBF5B
:100290000FBECDBF19A2423008F44AE08E010F5DB7
:1002A0001F4F842E912CB12CA12CA50194010E94EA
:1002B000C404E62FB901CA01EA3044F5E05DD80173
:1002C000EE938D01232B242B252B79F790E080E0F2
:1002D000109769F0FD0101900020E9F73197AF0117
:1002E0004A1B5B0BBD0186E491E00E948C00A19645
:1002F0000FB6F894DEBF0FBECDBFDF91CF911F9137
:100300000F91BF90AF909F908F900895E95CD7CFE9
:10031000FC0101900020E9F73197AF01481B590B10
:10032000BC0186E491E00C948C00CF93DF93EC0148
:1003300060E08E810E94B90061E08E810E94B90068
:1003400060E08E810E94B9008BE891E00197F1F79F
:10035000DF91CF910895CF92DF92EF92FF920F93AA
:100360001F93CF93DF936C017C0187E0E80EF11CB3
:10037000D0E0C0E0062F10E0B8010C2E02C0759549
:1003800067950A94E2F76170F70181917F010E94FD
:10039000B9002196C430D10579F7C601DF91CF911C
:1003A0001F910F91FF90EF90DF90CF900C949501EB
:1003B000CF92DF92EF92FF920F931F93CF93DF9331
:1003C000EC01F62E642F8C810E94B9008D818F3F45
:1003D00019F060E00E94B9000F2D10E08F8584FFB6
:1003E00025C06E0187E0C80ED11CF12CE12CB801AC
:1003F0000E2C02C0759567950A94E2F76170F601BC
:1004000081916F010E94B900FFEFEF1AFF0A88E0A7
:10041000E816F10461F7CE01DF91CF911F910F91A2
:10042000FF90EF90DF90CF900C949501B80184E09D
:10043000759567958A95E1F7CE010E94AB016F2D06
:10044000CE01DF91CF911F910F91FF90EF90DF9040
:10045000CF900C94AB0140E0682F86E491E00C94BF
:10046000D801CF93DF93823029F4909155019860A1
:10047000909355018093590110925A0180E4809322
:100480005B0180E180935C0180E580935D0161E028
:1004900080914A010E94050180914B018F3F19F024
:1004A00061E00E94050161E080914C010E9405011C
:1004B000C6E4D1E09E01265431408091550184FD6F
:1004C0000BC084E090E021962817390744F461E0DE
:1004D0008E810E940501EECF88E090E0F4CF8BE39F
:1004E0009DE00197F1F760E080914A010E94B90018
:1004F00060E080914C010E94B90080914B018F3FD8
:1005000019F060E00E94B9008091550184FD39C066
:1005100063E086E491E00E94AB01CBE4D6E4CE0137
:100520000197F1F763E086E491E00E94AB01219727
:10053000F1F763E086E491E00E94AB0183E592E08D
:100540000197F1F762E086E491E00E94AB018091AF
:10055000550180620E942B0284E0809356018CE05A
:100560000E942B0281E00E942B028BE39FE1019706
:10057000F1F782E08093570186E0DF91CF910C94F0
:100580002B0280620E942B028BE496E40197F1F724
:100590008091550180620E942B0283E592E00197D1
:1005A000F1F78091550180620E942B02D0CF41E08B
:1005B0000E94D80181E090E008951F920F920FB63B
:1005C0000F9211242F933F938F939F93AF93BF93D9
:1005D0008091410190914201A0914301B091440169
:1005E0003091400123E0230F2D3758F50196A11DCE
:1005F000B11D209340018093410190934201A0934B
:100600004301B093440180913C0190913D01A09140
:100610003E01B0913F010196A11DB11D80933C01A7
:1006200090933D01A0933E01B0933F01BF91AF91E4
:100630009F918F913F912F910F900FBE0F901F9020
:10064000189526E8230F0296A11DB11DD2CFCF9297
:10065000DF92EF92FF920F931F93E82FF92F05C0BF
:10066000015011092109310961F1908196239417F4
:10067000B9F305C0015011092109310911F1908127
:1006800096239413F7CFC12CD12CE12CF12C0AC066
:100690008FEFC81AD80AE80AF80A0C151D052E05AE
:1006A0003F0579F080818623841791F36C2D7D2D91
:1006B0008E2D9F2D1F910F91FF90EF90DF90CF9087
:1006C000089560E070E080E090E01F910F91FF904E
:1006D000EF90DF90CF900895789484B5826084BDC8
:1006E00084B5816084BD85B5826085BD85B5816036
:1006F00085BD80916E00816080936E0010928100B4
:10070000809181008260809381008091810081606E
:10071000809381008091800081608093800080912F
:10072000B10084608093B1008091B00081608093BB
:10073000B00080917A00846080937A0080917A0082
:10074000826080937A0080917A00816080937A0041
:1007500080917A00806880937A001092C10061E0F5
:1007600085E00E94050160E086E00E94050161E0ED
:1007700087E00E94050182E00E94310293E0292E69
:10078000312C23E2A22EB12C32E5432E34E0532E3D
:10079000612C712C40E0842E40E0942E60E085E0D6
:1007A0000E94B900C1010197F1F761E085E00E9464
:1007B000B900C5010197F1F760E085E00E94B9003A
:1007C000E4EBF0E06491E0EAF0E08491E82FF0E0FF
:1007D000EE0FFF1FE057FF4F8591949100E412E464
:1007E0002FE030E0462F0E94270361157105810537
:1007F000910529F06F5F7F4F8F4F9F4F9F700E9431
:100800002D0526E933E44BE05DE30E94910520E0ED
:1008100030E040E05FE30E9491050E94F504DB01B7
:1008200024E630E00E942606A30192010E94A5045E
:1008300069017A01E901E1E0809159018111E0E06B
:10084000E195F0E0EA5BFE4F848980680E942B020C
:100850008CE091E00E9488014AE0C701B601F7FEF2
:100860000EC041E06DE286E491E00E94D801662767
:100870007727CB016C197D098E099F094AE00E94F8
:100880003A0184E191E00E948801CE31D10514F54E
:1008900081E08093450180914501882319F161E051
:1008A00087E00E94B900E0915901E230C8F4E150BC
:1008B000F0E0EA5BFE4F848980680E942B028BE1A6
:1008C00091E00E9488018114910409F467CF0E948D
:1008D000000064CFC436D105F4F210924501DBCF9D
:1008E000E1E0E6CF60E087E00E94B900E0915901C5
:1008F000E23058F4E150F0E0EA5BFE4F8489806812
:100900000E942B028AE291E0DCCFE1E0F4CFE6E442
:10091000F1E01382128284E091E0918380838DE084
:1009200084838FEF85838CE086838BE087838AE0E6
:10093000808789E0818788E0828713861486158600
:100940001686178681E00C943102052E97FB1EF463
:1009500000940E94BC0457FD07D00E94C40407FC09
:1009600003D04EF40C94BC045095409530952195DD
:100970003F4F4F4F5F4F08959095809570956195CB
:100980007F4F8F4F9F4F0895A1E21A2EAA1BBB1BCA
:10099000FD010DC0AA1FBB1FEE1FFF1FA217B3074B
:1009A000E407F50720F0A21BB30BE40BF50B661F61
:1009B000771F881F991F1A9469F760957095809525
:1009C00090959B01AC01BD01CF010895A29FB0019C
:1009D000B39FC001A39F700D811D1124911DB29F73
:1009E000700D811D1124911D08950E94FC046894CE
:1009F000B1110C948B0508950E94700588F09F57E3
:100A000098F0B92F9927B751B0F0E1F0660F771F32
:100A1000881F991F1AF0BA95C9F714C0B13091F028
:100A20000E948A05B1E008950C948A05672F782FFB
:100A30008827B85F39F0B93FCCF3869577956795ED
:100A4000B395D9F73EF490958095709561957F4F59
:100A50008F4F9F4F0895E89409C097FB3EF49095FF
:100A60008095709561957F4F8F4F9F4F9923A9F087
:100A7000F92F96E9BB279395F69587957795679516
:100A8000B795F111F8CFFAF4BB0F11F460FF1BC05A
:100A90006F5F7F4F8F4F9F4F16C0882311F096E9ED
:100AA00011C0772321F09EE8872F762F05C066239B
:100AB00071F096E8862F70E060E02AF09A95660F54
:100AC000771F881FDAF7880F9695879597F908950D
:100AD00057FD9058440F551F59F05F3F71F04795EF
:100AE000880F97FB991F61F09F3F79F087950895D4
:100AF000121613061406551FF2CF4695F1DF08C0F3
:100B0000161617061806991FF1CF8695710561050F
:100B100008940895E894BB2766277727CB0197F9B7
:100B200008950E94A4050C9415060E94070638F04B
:100B30000E940E0620F0952311F00C94FE050C94F3
:100B4000040611240C948B050E94680570F3959F90
:100B5000C1F3950F50E0551F629FF001729FBB27B4
:100B6000F00DB11D639FAA27F00DB11DAA1F649F50
:100B70006627B00DA11D661F829F2227B00DA11D03
:100B8000621F739FB00DA11D621F839FA00D611D89
:100B9000221F749F3327A00D611D231F849F600DAA
:100BA000211D822F762F6A2F11249F5750409AF0D3
:100BB000F1F088234AF0EE0FFF1FBB1F661F771F5F
:100BC000881F91505040A9F79E3F510580F00C942A
:100BD000FE050C948B055F3FE4F3983ED4F38695B5
:100BE00077956795B795F795E7959F5FC1F7FE2BCA
:100BF000880F911D9695879597F9089597F99F67A6
:100C000080E870E060E008959FEF80EC0895002494
:100C10000A941616170618060906089500240A9461
:100C200012161306140605060895092E0394000CE7
:100C300011F4882352F0BB0F40F4BF2B11F460FF76
:100C400004C06F5F7F4F8F4F9F4F08950E94E6044F
:100C5000B7FF0895821B930B0895EE0FFF1F0590B9
:0A0C6000F491E02D0994F894FFCF01
:100C6A0000000000D7028C00370136015761746515
:100C7A00723A20002520202020200050756D703AFD
:100C8A00204F4E2020202020200050756D703A20E1
:0C0C9A004F464620202020202020000093
:00000001FF
